:100000000C942A000C943F000C943F000C943F0089
:100010000C943F000C943F000C943F000C943F0064
:100020000C943F000C943F000C943F000C943F0054
:100030000C943F000C943F000C943F000C943F0044
:100040000C943F000C943F000C943F000C943F0034
:100050000C943F0011241FBECFE5D8E0DEBFCDBF1A
:1000600010E0A0E6B0E0E4EDF5E002C005900D92EE
:10007000AC36B107D9F70E9441000C94E8020C9409
:1000800000000E9424020E94AA0064E670E080E062
:1000900090E00E941E01FFCFCF93C82F60E081E067
:1000A0000E949D0160E082E00E949D01C4FB6627E2
:1000B00060F983E00E949D01C5FB662760F984E03A
:1000C0000E949D01C6FB662760F985E00E949D01A4
:1000D0006C2F661F6627661F86E00E949D0161E007
:1000E00082E00E949D018FE99FE00197F1F700C037
:1000F000000060E082E00E949D016C2F617083E04F
:100100000E949D01C1FB662760F984E00E949D0169
:10011000C2FB662760F985E00E949D01C3FB66274C
:1001200060F986E00E949D0161E082E00E949D01ED
:100130008FE99FE00197F1F700C0000060E082E0E6
:100140000E949D018FE19EE40197F1F700C000003D
:10015000CF91089583E30E944C0082E30E944C00FB
:1001600088E20E944C008CE00E944C0081E00E94DA
:100170004C0086E00E944C0082E00E944C000895F2
:10018000CF93C82F61E081E00E949D0160E082E092
:100190000E949D01C4FB662760F983E00E949D01D7
:1001A000C5FB662760F984E00E949D01C6FB6627B7
:1001B00060F985E00E949D016C2F661F6627661F0F
:1001C00086E00E949D0161E082E00E949D018FE92E
:1001D0009FE00197F1F700C0000060E082E00E941C
:1001E0009D016C2F617083E00E949D01C1FB662719
:1001F00060F984E00E949D01C2FB662760F985E0FA
:100200000E949D01C3FB662760F986E00E949D0164
:1002100061E082E00E949D018FE99FE00197F1F784
:1002200000C0000060E082E00E949D018FE19EE43A
:100230000197F1F700C00000CF9108958F929F922F
:10024000AF92BF92CF92DF92EF92FF920F931F93E4
:100250008B019C01611571058105910521F480E3F5
:100260000E94C0005FC0992334F0161617061806C6
:1002700019062CF057C08DE20E94C00053C061E007
:1002800070E080E090E00F2EFAE08F2E912CA12CF0
:10029000B12CF02DDC01CB01880F991FAA1FBB1FC9
:1002A0006C017D01CC0CDD1CEE1CFF1CCC0CDD1C9C
:1002B000EE1CFF1CC80ED91EEA1EFB1EC901B801A8
:1002C000A50194010E94A7026C0D7D1D8E1D9F1D2E
:1002D000022F132F242F352F101611061206130686
:1002E000CCF26230710581059105E4F00F2EFAE041
:1002F0008F2E912CA12CB12CF02DA50194010E94E0
:10030000A702E22EF32E042F152F80E3860F0E9402
:10031000C0006E2D7F2D802F912F623071058105D9
:1003200091055CF71F910F91FF90EF90DF90CF90B8
:10033000BF90AF909F908F900895982F9695969527
:1003400096958770662309F43FC0613009F07BC041
:10035000913099F028F09230E9F0933041F108950E
:100360004BB321E030E0B90102C0660F771F8A95D8
:10037000E2F7CB01842B8BBB089548B321E030E03A
:10038000B90102C0660F771F8A95E2F7CB01842B73
:1003900088BB089545B321E030E0B90102C0660F83
:1003A000771F8A95E2F7CB01842B85BB089542B372
:1003B00021E030E0B90102C0660F771F8A95E2F7AD
:1003C000CB01842B82BB08959130A1F028F09230AC
:1003D000F9F0933059F108954BB321E030E0B901C1
:1003E00002C0660F771F8A95E2F7CB0180958423C0
:1003F0008BBB089548B321E030E0B90102C0660F1D
:10040000771F8A95E2F7CB018095842388BB0895F6
:1004100045B321E030E0B90102C0660F771F8A952D
:10042000E2F7CB018095842385BB089542B321E098
:1004300030E0B90102C0660F771F8A95E2F7CB0161
:100440008095842382BB0895E0E6F0E04CE650E01E
:1004500061E070E08081982F9695969596958770CB
:1004600021812223B9F1213009F06BC0913089F04C
:1004700028F09230C9F0933011F163C02AB3DB0148
:1004800002C0AA0FBB1F8A95E2F7CD01822B8ABB5F
:1004900058C027B3DB0102C0AA0FBB1F8A95E2F741
:1004A000CD01822B87BB4DC024B3DB0102C0AA0F54
:1004B000BB1F8A95E2F7CD01822B84BB42C021B3DA
:1004C000DB0102C0AA0FBB1F8A95E2F7CD01822B88
:1004D00081BB37C0913091F028F09230D9F0933041
:1004E00029F12FC09AB39B0102C0220F331F8A95B6
:1004F000E2F7822F809589238ABB23C097B39B01A3
:1005000002C0220F331F8A95E2F7822F809589233C
:1005100087BB17C094B39B0102C0220F331F8A957B
:10052000E2F7822F8095892384BB0BC091B39B0196
:1005300002C0220F331F8A95E2F7822F809589230C
:1005400081BB3296E417F50709F084CF0895052E94
:1005500097FB1EF400940E94BE0257FD07D00E9434
:10056000C60207FC03D04EF40C94BE025095409591
:10057000309521953F4F4F4F5F4F0895909580954F
:10058000709561957F4F8F4F9F4F0895A1E21A2E6E
:10059000AA1BBB1BFD010DC0AA1FBB1FEE1FFF1F27
:1005A000A217B307E407F50720F0A21BB30BE40B77
:1005B000F50B661F771F881F991F1A9469F76095BE
:1005C0007095809590959B01AC01BD01CF01089578
:0405D000F894FFCFCD
:0C05D40001010201030104010501060100
:00000001FF
