S0160000415652496E746572666163696E672E73726563BB
S11300000C942A000C943F000C943F000C943F0085
S11300100C943F000C943F000C943F000C943F0060
S11300200C943F000C943F000C943F000C943F0050
S11300300C943F000C943F000C943F000C943F0040
S11300400C943F000C943F000C943F000C943F0030
S11300500C943F0011241FBECFE5D8E0DEBFCDBF16
S113006010E0A0E6B0E0E4EAF1E002C005900D92F1
S1130070A236B107D9F70E9441000C94D0000C9429
S113008000000E944500A99AFECFE0E6F0E08081DE
S1130090982F96959695969587702181222309F439
S11300A03FC0213009F07BC0913099F028F09230A4
S11300B0E9F0933041F108954AB321E030E0B90109
S11300C002C0660F771F8A95E2F7CB01842B8ABBA7
S11300D0089547B321E030E0B90102C0660F771FED
S11300E08A95E2F7CB01842B87BB089544B321E0C2
S11300F030E0B90102C0660F771F8A95E2F7CB01A1
S1130100842B84BB089541B321E030E0B90102C0DF
S1130110660F771F8A95E2F7CB01842B81BB089584
S11301209130A1F028F09230F9F0933059F108950C
S11301304AB321E030E0B90102C0660F771F8A9507
S1130140E2F7CB01809584238ABB089547B321E06D
S113015030E0B90102C0660F771F8A95E2F7CB0140
S11301608095842387BB089544B321E030E0B9012E
S113017002C0660F771F8A95E2F7CB01809584232E
S113018084BB089541B321E030E0B90102C0660F99
S1130190771F8A95E2F7CB018095842381BB08956C
S10701A0F894FFCFFD
S10501A4110143
S9030000FC
